{
  "contractName": "Admins",
  "abi": [
    {
      "constant": true,
      "inputs": [
        {
          "name": "",
          "type": "address"
        }
      ],
      "name": "admins",
      "outputs": [
        {
          "name": "",
          "type": "bool"
        }
      ],
      "payable": false,
      "stateMutability": "view",
      "type": "function"
    },
    {
      "constant": true,
      "inputs": [],
      "name": "serverAddress",
      "outputs": [
        {
          "name": "",
          "type": "address"
        }
      ],
      "payable": false,
      "stateMutability": "view",
      "type": "function"
    },
    {
      "inputs": [],
      "payable": false,
      "stateMutability": "nonpayable",
      "type": "constructor"
    },
    {
      "anonymous": false,
      "inputs": [
        {
          "indexed": false,
          "name": "newAdmin",
          "type": "address"
        }
      ],
      "name": "AddAdmin",
      "type": "event"
    },
    {
      "anonymous": false,
      "inputs": [
        {
          "indexed": false,
          "name": "adminAdress",
          "type": "address"
        }
      ],
      "name": "RemoveAdmin",
      "type": "event"
    },
    {
      "anonymous": false,
      "inputs": [
        {
          "indexed": false,
          "name": "oldAddress",
          "type": "address"
        },
        {
          "indexed": false,
          "name": "newAddress",
          "type": "address"
        }
      ],
      "name": "ChangeServerAddr",
      "type": "event"
    },
    {
      "constant": false,
      "inputs": [
        {
          "name": "a",
          "type": "address"
        }
      ],
      "name": "removeAdmin",
      "outputs": [],
      "payable": false,
      "stateMutability": "nonpayable",
      "type": "function"
    },
    {
      "constant": false,
      "inputs": [
        {
          "name": "a",
          "type": "address"
        }
      ],
      "name": "addAdmin",
      "outputs": [],
      "payable": false,
      "stateMutability": "nonpayable",
      "type": "function"
    },
    {
      "constant": false,
      "inputs": [
        {
          "name": "newAddress",
          "type": "address"
        }
      ],
      "name": "changeServerAddr",
      "outputs": [],
      "payable": false,
      "stateMutability": "nonpayable",
      "type": "function"
    }
  ],
  "bytecode": "0x6060604052341561000f57600080fd5b60016000803373ffffffffffffffffffffffffffffffffffffffff1673ffffffffffffffffffffffffffffffffffffffff16815260200190815260200160002060006101000a81548160ff0219169083151502179055506105b1806100756000396000f30060606040526004361061006d576000357c0100000000000000000000000000000000000000000000000000000000900463ffffffff1680631785f53c14610072578063429b62e5146100ab57806370480275146100fc578063db420fe314610135578063e83faeba1461018a575b600080fd5b341561007d57600080fd5b6100a9600480803573ffffffffffffffffffffffffffffffffffffffff169060200190919050506101c3565b005b34156100b657600080fd5b6100e2600480803573ffffffffffffffffffffffffffffffffffffffff169060200190919050506102d7565b604051808215151515815260200191505060405180910390f35b341561010757600080fd5b610133600480803573ffffffffffffffffffffffffffffffffffffffff169060200190919050506102f7565b005b341561014057600080fd5b61014861040b565b604051808273ffffffffffffffffffffffffffffffffffffffff1673ffffffffffffffffffffffffffffffffffffffff16815260200191505060405180910390f35b341561019557600080fd5b6101c1600480803573ffffffffffffffffffffffffffffffffffffffff16906020019091905050610431565b005b6000803373ffffffffffffffffffffffffffffffffffffffff1673ffffffffffffffffffffffffffffffffffffffff16815260200190815260200160002060009054906101000a900460ff16151561021a57600080fd5b60008060008373ffffffffffffffffffffffffffffffffffffffff1673ffffffffffffffffffffffffffffffffffffffff16815260200190815260200160002060006101000a81548160ff0219169083151502179055507f753f40ca3312b2408759a67875b367955e7baa221daf08aa3d643d96202ac12b81604051808273ffffffffffffffffffffffffffffffffffffffff1673ffffffffffffffffffffffffffffffffffffffff16815260200191505060405180910390a150565b60006020528060005260406000206000915054906101000a900460ff1681565b6000803373ffffffffffffffffffffffffffffffffffffffff1673ffffffffffffffffffffffffffffffffffffffff16815260200190815260200160002060009054906101000a900460ff16151561034e57600080fd5b60016000808373ffffffffffffffffffffffffffffffffffffffff1673ffffffffffffffffffffffffffffffffffffffff16815260200190815260200160002060006101000a81548160ff0219169083151502179055507fad6de4452a631e641cb59902236607946ce9272b9b981f2f80e8d129cb9084ba81604051808273ffffffffffffffffffffffffffffffffffffffff1673ffffffffffffffffffffffffffffffffffffffff16815260200191505060405180910390a150565b600160009054906101000a900473ffffffffffffffffffffffffffffffffffffffff1681565b6000803373ffffffffffffffffffffffffffffffffffffffff1673ffffffffffffffffffffffffffffffffffffffff16815260200190815260200160002060009054906101000a900460ff16151561048857600080fd5b7ff0d444b874290fabcedb49fc66c8f07fe4754f00e67d6377fa755171cbfa476a600160009054906101000a900473ffffffffffffffffffffffffffffffffffffffff1682604051808373ffffffffffffffffffffffffffffffffffffffff1673ffffffffffffffffffffffffffffffffffffffff1681526020018273ffffffffffffffffffffffffffffffffffffffff1673ffffffffffffffffffffffffffffffffffffffff1681526020019250505060405180910390a180600160006101000a81548173ffffffffffffffffffffffffffffffffffffffff021916908373ffffffffffffffffffffffffffffffffffffffff160217905550505600a165627a7a72305820b7d503b71fa0bb6501f1e3b5713707d431452f87b7b4f240c3f558b917a0b10a0029",
  "source": "pragma solidity ^0.4.17;\n\ncontract Admins {\n\n\tmapping (address => bool) public admins;\n\n\taddress public serverAddress;\n\n\tfunction Admins() public {admins[msg.sender] = true;}\n\n\tevent AddAdmin(address newAdmin);\n\tevent RemoveAdmin(address adminAdress);\n\tevent ChangeServerAddr(address oldAddress, address newAddress);\n\n\tfunction removeAdmin(address a) external onlyAdmin {\n\t\tadmins[a] = false;\n\t\tRemoveAdmin(a);\n\t}\n\n\tfunction addAdmin(address a) external onlyAdmin {\n\t\tadmins[a] = true;\n\t\tAddAdmin(a);\n\t}\n\n\tfunction changeServerAddr(address newAddress) external onlyAdmin {\n\t\tChangeServerAddr(serverAddress, newAddress);\n\t\tserverAddress = newAddress;\n\t}\n\n\tmodifier onlyAdmin {\n\t\trequire(admins[msg.sender]);\n\t\t_;\n\t}\n\n\tmodifier onlyServer {\n\t\trequire(msg.sender == serverAddress);\n\t\t_;\n\t}\n}\n\n",
  "sourcePath": "/home/satchel/workspace/blockcerts/kyc-smart-contract/contracts/Admins.sol",
  "compiler": {
    "name": "solc",
    "version": "0.4.19+commit.c4cbbb05.Emscripten.clang"
  },
  "schemaVersion": "2.0.0",
  "updatedAt": "2018-09-07T06:40:59.498Z"
}