{
  "contractName": "KYC",
  "abi": [
    {
      "constant": false,
      "inputs": [
        {
          "name": "a",
          "type": "address"
        }
      ],
      "name": "removeAdmin",
      "outputs": [],
      "payable": false,
      "stateMutability": "nonpayable",
      "type": "function"
    },
    {
      "constant": true,
      "inputs": [
        {
          "name": "",
          "type": "address"
        }
      ],
      "name": "admins",
      "outputs": [
        {
          "name": "",
          "type": "bool"
        }
      ],
      "payable": false,
      "stateMutability": "view",
      "type": "function"
    },
    {
      "constant": true,
      "inputs": [
        {
          "name": "",
          "type": "address"
        }
      ],
      "name": "informations",
      "outputs": [
        {
          "name": "hashData",
          "type": "bytes32"
        },
        {
          "name": "valueNodes",
          "type": "uint256"
        },
        {
          "name": "valid",
          "type": "bool"
        }
      ],
      "payable": false,
      "stateMutability": "view",
      "type": "function"
    },
    {
      "constant": false,
      "inputs": [
        {
          "name": "a",
          "type": "address"
        }
      ],
      "name": "addAdmin",
      "outputs": [],
      "payable": false,
      "stateMutability": "nonpayable",
      "type": "function"
    },
    {
      "constant": true,
      "inputs": [],
      "name": "serverAddress",
      "outputs": [
        {
          "name": "",
          "type": "address"
        }
      ],
      "payable": false,
      "stateMutability": "view",
      "type": "function"
    },
    {
      "constant": false,
      "inputs": [
        {
          "name": "newAddress",
          "type": "address"
        }
      ],
      "name": "changeServerAddr",
      "outputs": [],
      "payable": false,
      "stateMutability": "nonpayable",
      "type": "function"
    },
    {
      "anonymous": false,
      "inputs": [
        {
          "indexed": false,
          "name": "user",
          "type": "address"
        },
        {
          "indexed": false,
          "name": "hashData",
          "type": "bytes32"
        },
        {
          "indexed": false,
          "name": "valueNodes",
          "type": "uint256"
        }
      ],
      "name": "CreateUserInfo",
      "type": "event"
    },
    {
      "anonymous": false,
      "inputs": [
        {
          "indexed": false,
          "name": "user",
          "type": "address"
        },
        {
          "indexed": false,
          "name": "hashData",
          "type": "bytes32"
        },
        {
          "indexed": false,
          "name": "valueNodes",
          "type": "uint256"
        }
      ],
      "name": "ChangeUserInfo",
      "type": "event"
    },
    {
      "anonymous": false,
      "inputs": [
        {
          "indexed": false,
          "name": "user",
          "type": "address"
        }
      ],
      "name": "UserAuthorization",
      "type": "event"
    },
    {
      "anonymous": false,
      "inputs": [
        {
          "indexed": false,
          "name": "addr",
          "type": "address"
        },
        {
          "indexed": false,
          "name": "amount",
          "type": "uint256"
        }
      ],
      "name": "WithdrawalFunds",
      "type": "event"
    },
    {
      "anonymous": false,
      "inputs": [
        {
          "indexed": false,
          "name": "newAdmin",
          "type": "address"
        }
      ],
      "name": "AddAdmin",
      "type": "event"
    },
    {
      "anonymous": false,
      "inputs": [
        {
          "indexed": false,
          "name": "adminAdress",
          "type": "address"
        }
      ],
      "name": "RemoveAdmin",
      "type": "event"
    },
    {
      "anonymous": false,
      "inputs": [
        {
          "indexed": false,
          "name": "oldAddress",
          "type": "address"
        },
        {
          "indexed": false,
          "name": "newAddress",
          "type": "address"
        }
      ],
      "name": "ChangeServerAddr",
      "type": "event"
    },
    {
      "constant": false,
      "inputs": [
        {
          "name": "user",
          "type": "address"
        },
        {
          "name": "hashData",
          "type": "bytes32"
        },
        {
          "name": "valueNodes",
          "type": "uint256"
        }
      ],
      "name": "createUserInfo",
      "outputs": [],
      "payable": false,
      "stateMutability": "nonpayable",
      "type": "function"
    },
    {
      "constant": false,
      "inputs": [
        {
          "name": "user",
          "type": "address"
        },
        {
          "name": "hashData",
          "type": "bytes32"
        },
        {
          "name": "valueNodes",
          "type": "uint256"
        }
      ],
      "name": "changeUserInfo",
      "outputs": [],
      "payable": false,
      "stateMutability": "nonpayable",
      "type": "function"
    },
    {
      "constant": false,
      "inputs": [],
      "name": "userAuthorization",
      "outputs": [],
      "payable": true,
      "stateMutability": "payable",
      "type": "function"
    },
    {
      "constant": true,
      "inputs": [
        {
          "name": "user",
          "type": "address"
        }
      ],
      "name": "isAuthorized",
      "outputs": [
        {
          "name": "",
          "type": "bool"
        }
      ],
      "payable": false,
      "stateMutability": "view",
      "type": "function"
    },
    {
      "constant": false,
      "inputs": [
        {
          "name": "addr",
          "type": "address"
        },
        {
          "name": "amount",
          "type": "uint256"
        }
      ],
      "name": "withdrawalFunds",
      "outputs": [],
      "payable": false,
      "stateMutability": "nonpayable",
      "type": "function"
    }
  ],
  "bytecode": "0x606060405260016000803373ffffffffffffffffffffffffffffffffffffffff1673ffffffffffffffffffffffffffffffffffffffff16815260200190815260200160002060006101000a81548160ff0219169083151502179055506111198061006a6000396000f3006060604052600436106100af576000357c0100000000000000000000000000000000000000000000000000000000900463ffffffff1680631785f53c146100b45780631c9b0532146100ed578063429b62e51461013c57806357cf9a381461018d57806363cb7cec146101f45780636c90a0c2146101fe578063704802751461024d578063d9dff70914610286578063db420fe3146102c8578063e83faeba1461031d578063fe9fbb8014610356575b600080fd5b34156100bf57600080fd5b6100eb600480803573ffffffffffffffffffffffffffffffffffffffff169060200190919050506103a7565b005b34156100f857600080fd5b61013a600480803573ffffffffffffffffffffffffffffffffffffffff16906020019091908035600019169060200190919080359060200190919050506104bb565b005b341561014757600080fd5b610173600480803573ffffffffffffffffffffffffffffffffffffffff16906020019091905050610761565b604051808215151515815260200191505060405180910390f35b341561019857600080fd5b6101c4600480803573ffffffffffffffffffffffffffffffffffffffff16906020019091905050610781565b60405180846000191660001916815260200183815260200182151515158152602001935050505060405180910390f35b6101fc6107b8565b005b341561020957600080fd5b61024b600480803573ffffffffffffffffffffffffffffffffffffffff16906020019091908035600019169060200190919080359060200190919050506109d8565b005b341561025857600080fd5b610284600480803573ffffffffffffffffffffffffffffffffffffffff16906020019091905050610bfd565b005b341561029157600080fd5b6102c6600480803573ffffffffffffffffffffffffffffffffffffffff16906020019091908035906020019091905050610d11565b005b34156102d357600080fd5b6102db610e71565b604051808273ffffffffffffffffffffffffffffffffffffffff1673ffffffffffffffffffffffffffffffffffffffff16815260200191505060405180910390f35b341561032857600080fd5b610354600480803573ffffffffffffffffffffffffffffffffffffffff16906020019091905050610e97565b005b341561036157600080fd5b61038d600480803573ffffffffffffffffffffffffffffffffffffffff16906020019091905050610feb565b604051808215151515815260200191505060405180910390f35b6000803373ffffffffffffffffffffffffffffffffffffffff1673ffffffffffffffffffffffffffffffffffffffff16815260200190815260200160002060009054906101000a900460ff1615156103fe57600080fd5b60008060008373ffffffffffffffffffffffffffffffffffffffff1673ffffffffffffffffffffffffffffffffffffffff16815260200190815260200160002060006101000a81548160ff0219169083151502179055507f753f40ca3312b2408759a67875b367955e7baa221daf08aa3d643d96202ac12b81604051808273ffffffffffffffffffffffffffffffffffffffff1673ffffffffffffffffffffffffffffffffffffffff16815260200191505060405180910390a150565b600160009054906101000a900473ffffffffffffffffffffffffffffffffffffffff1673ffffffffffffffffffffffffffffffffffffffff163373ffffffffffffffffffffffffffffffffffffffff1614151561051757600080fd5b6000600102600260008573ffffffffffffffffffffffffffffffffffffffff1673ffffffffffffffffffffffffffffffffffffffff168152602001908152602001600020600001546000191614801561057857506000600102826000191614155b151561058357600080fd5b6000600260008573ffffffffffffffffffffffffffffffffffffffff1673ffffffffffffffffffffffffffffffffffffffff168152602001908152602001600020600101541480156105d55750600081115b15156105e057600080fd5b60001515600260008573ffffffffffffffffffffffffffffffffffffffff1673ffffffffffffffffffffffffffffffffffffffff16815260200190815260200160002060020160009054906101000a900460ff16151514151561064257600080fd5b6060604051908101604052808360001916815260200182815260200160001515815250600260008573ffffffffffffffffffffffffffffffffffffffff1673ffffffffffffffffffffffffffffffffffffffff168152602001908152602001600020600082015181600001906000191690556020820151816001015560408201518160020160006101000a81548160ff0219169083151502179055509050507f126926747b0a28273d087e73c6cc0d38d8165eb6887eaf767e8b852999396b03838383604051808473ffffffffffffffffffffffffffffffffffffffff1673ffffffffffffffffffffffffffffffffffffffff1681526020018360001916600019168152602001828152602001935050505060405180910390a1505050565b60006020528060005260406000206000915054906101000a900460ff1681565b60026020528060005260406000206000915090508060000154908060010154908060020160009054906101000a900460ff16905083565b6000600102600260003373ffffffffffffffffffffffffffffffffffffffff1673ffffffffffffffffffffffffffffffffffffffff16815260200190815260200160002060000154600019161415151561081157600080fd5b6000600260003373ffffffffffffffffffffffffffffffffffffffff1673ffffffffffffffffffffffffffffffffffffffff1681526020019081526020016000206001015411151561086257600080fd5b60001515600260003373ffffffffffffffffffffffffffffffffffffffff1673ffffffffffffffffffffffffffffffffffffffff16815260200190815260200160002060020160009054906101000a900460ff1615151415156108c457600080fd5b60643402600260003373ffffffffffffffffffffffffffffffffffffffff1673ffffffffffffffffffffffffffffffffffffffff168152602001908152602001600020600101541115151561091857600080fd5b6001600260003373ffffffffffffffffffffffffffffffffffffffff1673ffffffffffffffffffffffffffffffffffffffff16815260200190815260200160002060020160006101000a81548160ff0219169083151502179055507f9bf77f8fb8aed6e5709a9ef58f231d79fdc0addc51b78550aed1ad5a5c0274d233604051808273ffffffffffffffffffffffffffffffffffffffff1673ffffffffffffffffffffffffffffffffffffffff16815260200191505060405180910390a1565b600160009054906101000a900473ffffffffffffffffffffffffffffffffffffffff1673ffffffffffffffffffffffffffffffffffffffff163373ffffffffffffffffffffffffffffffffffffffff16141515610a3457600080fd5b6000600102600260008573ffffffffffffffffffffffffffffffffffffffff1673ffffffffffffffffffffffffffffffffffffffff168152602001908152602001600020600001546000191614151515610a8d57600080fd5b6000600260008573ffffffffffffffffffffffffffffffffffffffff1673ffffffffffffffffffffffffffffffffffffffff16815260200190815260200160002060010154111515610ade57600080fd5b6060604051908101604052808360001916815260200182815260200160001515815250600260008573ffffffffffffffffffffffffffffffffffffffff1673ffffffffffffffffffffffffffffffffffffffff168152602001908152602001600020600082015181600001906000191690556020820151816001015560408201518160020160006101000a81548160ff0219169083151502179055509050507fc8f9d3cd7de8fb93d66cd449658b11836cdc127cf76c408e219a688b7d69f893838383604051808473ffffffffffffffffffffffffffffffffffffffff1673ffffffffffffffffffffffffffffffffffffffff1681526020018360001916600019168152602001828152602001935050505060405180910390a1505050565b6000803373ffffffffffffffffffffffffffffffffffffffff1673ffffffffffffffffffffffffffffffffffffffff16815260200190815260200160002060009054906101000a900460ff161515610c5457600080fd5b60016000808373ffffffffffffffffffffffffffffffffffffffff1673ffffffffffffffffffffffffffffffffffffffff16815260200190815260200160002060006101000a81548160ff0219169083151502179055507fad6de4452a631e641cb59902236607946ce9272b9b981f2f80e8d129cb9084ba81604051808273ffffffffffffffffffffffffffffffffffffffff1673ffffffffffffffffffffffffffffffffffffffff16815260200191505060405180910390a150565b60008060003373ffffffffffffffffffffffffffffffffffffffff1673ffffffffffffffffffffffffffffffffffffffff16815260200190815260200160002060009054906101000a900460ff161515610d6a57600080fd5b60009050600082141515610da657813073ffffffffffffffffffffffffffffffffffffffff163110151515610d9e57600080fd5b819050610dc1565b3073ffffffffffffffffffffffffffffffffffffffff163190505b8273ffffffffffffffffffffffffffffffffffffffff166108fc829081150290604051600060405180830381858888f193505050501515610e0157600080fd5b7fc93a5439de6e4507ebd443b47a0240821f25fedfd004222d1fc55e99a5a2a6608382604051808373ffffffffffffffffffffffffffffffffffffffff1673ffffffffffffffffffffffffffffffffffffffff1681526020018281526020019250505060405180910390a1505050565b600160009054906101000a900473ffffffffffffffffffffffffffffffffffffffff1681565b6000803373ffffffffffffffffffffffffffffffffffffffff1673ffffffffffffffffffffffffffffffffffffffff16815260200190815260200160002060009054906101000a900460ff161515610eee57600080fd5b7ff0d444b874290fabcedb49fc66c8f07fe4754f00e67d6377fa755171cbfa476a600160009054906101000a900473ffffffffffffffffffffffffffffffffffffffff1682604051808373ffffffffffffffffffffffffffffffffffffffff1673ffffffffffffffffffffffffffffffffffffffff1681526020018273ffffffffffffffffffffffffffffffffffffffff1673ffffffffffffffffffffffffffffffffffffffff1681526020019250505060405180910390a180600160006101000a81548173ffffffffffffffffffffffffffffffffffffffff021916908373ffffffffffffffffffffffffffffffffffffffff16021790555050565b600080600102600260008473ffffffffffffffffffffffffffffffffffffffff1673ffffffffffffffffffffffffffffffffffffffff16815260200190815260200160002060000154600019161415151561104557600080fd5b6000600260008473ffffffffffffffffffffffffffffffffffffffff1673ffffffffffffffffffffffffffffffffffffffff1681526020019081526020016000206001015411151561109657600080fd5b600260008373ffffffffffffffffffffffffffffffffffffffff1673ffffffffffffffffffffffffffffffffffffffff16815260200190815260200160002060020160009054906101000a900460ff1690509190505600a165627a7a7230582010f9b3c9f6446dc16ff4f99d7a8db656da82a620e0fd58b11acb3681b572e7c50029",
  "source": "pragma solidity ^0.4.17;\n\nimport \"./Admins.sol\";\n\ncontract KYC is Admins {\n\n    struct UserInfo {\n        bytes32 hashData;\n        uint valueNodes;\n        bool valid;\n    }\n\n    mapping(address => UserInfo) public informations;\n\n    event CreateUserInfo(address user, bytes32 hashData, uint valueNodes);\n    event ChangeUserInfo(address user, bytes32 hashData, uint valueNodes);\n    event UserAuthorization(address user);\n    event WithdrawalFunds(address addr, uint amount);\n\n    function createUserInfo(address user, bytes32 hashData, uint valueNodes) external onlyServer {\n        require(informations[user].hashData == 0 && hashData != 0);\n        require(informations[user].valueNodes == 0 && valueNodes > 0);\n        require(informations[user].valid == false);\n\n        informations[user] = UserInfo(hashData, valueNodes, false);\n\n        CreateUserInfo(user, hashData, valueNodes);\n    }\n\n    function changeUserInfo(address user, bytes32 hashData, uint valueNodes) external onlyServer {\n        require(informations[user].hashData != 0);\n        require(informations[user].valueNodes > 0 );\n\n        informations[user] = UserInfo(hashData, valueNodes, false);\n\n        ChangeUserInfo(user, hashData, valueNodes);\n    }\n\n    function userAuthorization() external payable {\n        require(informations[msg.sender].hashData != 0);\n        require(informations[msg.sender].valueNodes > 0 );\n        require(informations[msg.sender].valid == false);\n        require(informations[msg.sender].valueNodes <= (msg.value * 100));\n\n        informations[msg.sender].valid = true;\n\n        UserAuthorization(msg.sender);\n    }\n\n    function isAuthorized(address user) external constant returns(bool) {\n        require(informations[user].hashData != 0);\n        require(informations[user].valueNodes > 0 );\n\n        return informations[user].valid;\n    }\n\n    function withdrawalFunds(address addr, uint amount) external onlyAdmin {\n\n        uint summ = 0;\n        if(amount != 0) {\n            require(this.balance >= amount);\n            summ = amount;\n        } else {\n            summ = this.balance;\n        }\n        addr.transfer(summ);\n\n        WithdrawalFunds(addr, summ);\n    }\n}\n\n",
  "sourcePath": "/home/satchel/workspace/blockcerts/kyc-smart-contract/contracts/KYC.sol",
  "compiler": {
    "name": "solc",
    "version": "0.4.19+commit.c4cbbb05.Emscripten.clang"
  },
  "schemaVersion": "2.0.0",
  "updatedAt": "2018-09-07T06:40:59.501Z"
}