{
  "contractName": "KYC",
  "abi": [
    {
      "constant": false,
      "inputs": [
        {
          "name": "a",
          "type": "address"
        }
      ],
      "name": "removeAdmin",
      "outputs": [],
      "payable": false,
      "stateMutability": "nonpayable",
      "type": "function"
    },
    {
      "constant": true,
      "inputs": [
        {
          "name": "",
          "type": "address"
        }
      ],
      "name": "admins",
      "outputs": [
        {
          "name": "",
          "type": "bool"
        }
      ],
      "payable": false,
      "stateMutability": "view",
      "type": "function"
    },
    {
      "constant": true,
      "inputs": [
        {
          "name": "",
          "type": "address"
        }
      ],
      "name": "informations",
      "outputs": [
        {
          "name": "hashData",
          "type": "string"
        },
        {
          "name": "valueNodes",
          "type": "uint256"
        },
        {
          "name": "valid",
          "type": "bool"
        }
      ],
      "payable": false,
      "stateMutability": "view",
      "type": "function"
    },
    {
      "constant": false,
      "inputs": [
        {
          "name": "a",
          "type": "address"
        }
      ],
      "name": "addAdmin",
      "outputs": [],
      "payable": false,
      "stateMutability": "nonpayable",
      "type": "function"
    },
    {
      "constant": true,
      "inputs": [],
      "name": "serverAddress",
      "outputs": [
        {
          "name": "",
          "type": "address"
        }
      ],
      "payable": false,
      "stateMutability": "view",
      "type": "function"
    },
    {
      "constant": false,
      "inputs": [
        {
          "name": "newAddress",
          "type": "address"
        }
      ],
      "name": "changeServerAddr",
      "outputs": [],
      "payable": false,
      "stateMutability": "nonpayable",
      "type": "function"
    },
    {
      "anonymous": false,
      "inputs": [
        {
          "indexed": false,
          "name": "user",
          "type": "address"
        },
        {
          "indexed": false,
          "name": "hashData",
          "type": "string"
        },
        {
          "indexed": false,
          "name": "valueNodes",
          "type": "uint256"
        }
      ],
      "name": "CreateUserInfo",
      "type": "event"
    },
    {
      "anonymous": false,
      "inputs": [
        {
          "indexed": false,
          "name": "user",
          "type": "address"
        },
        {
          "indexed": false,
          "name": "hashData",
          "type": "string"
        },
        {
          "indexed": false,
          "name": "valueNodes",
          "type": "uint256"
        }
      ],
      "name": "ChangeUserInfo",
      "type": "event"
    },
    {
      "anonymous": false,
      "inputs": [
        {
          "indexed": false,
          "name": "user",
          "type": "address"
        }
      ],
      "name": "UserAuthorization",
      "type": "event"
    },
    {
      "anonymous": false,
      "inputs": [
        {
          "indexed": false,
          "name": "addr",
          "type": "address"
        },
        {
          "indexed": false,
          "name": "amount",
          "type": "uint256"
        }
      ],
      "name": "WithdrawalFunds",
      "type": "event"
    },
    {
      "anonymous": false,
      "inputs": [
        {
          "indexed": false,
          "name": "newAdmin",
          "type": "address"
        }
      ],
      "name": "AddAdmin",
      "type": "event"
    },
    {
      "anonymous": false,
      "inputs": [
        {
          "indexed": false,
          "name": "adminAdress",
          "type": "address"
        }
      ],
      "name": "RemoveAdmin",
      "type": "event"
    },
    {
      "anonymous": false,
      "inputs": [
        {
          "indexed": false,
          "name": "oldAddress",
          "type": "address"
        },
        {
          "indexed": false,
          "name": "newAddress",
          "type": "address"
        }
      ],
      "name": "ChangeServerAddr",
      "type": "event"
    },
    {
      "constant": false,
      "inputs": [
        {
          "name": "user",
          "type": "address"
        },
        {
          "name": "hashData",
          "type": "string"
        },
        {
          "name": "valueNodes",
          "type": "uint256"
        }
      ],
      "name": "createUserInfo",
      "outputs": [],
      "payable": false,
      "stateMutability": "nonpayable",
      "type": "function"
    },
    {
      "constant": false,
      "inputs": [
        {
          "name": "user",
          "type": "address"
        },
        {
          "name": "hashData",
          "type": "string"
        },
        {
          "name": "valueNodes",
          "type": "uint256"
        }
      ],
      "name": "changeUserInfo",
      "outputs": [],
      "payable": false,
      "stateMutability": "nonpayable",
      "type": "function"
    },
    {
      "constant": false,
      "inputs": [],
      "name": "userAuthorization",
      "outputs": [],
      "payable": true,
      "stateMutability": "payable",
      "type": "function"
    },
    {
      "constant": true,
      "inputs": [
        {
          "name": "user",
          "type": "address"
        }
      ],
      "name": "isAuthorized",
      "outputs": [
        {
          "name": "",
          "type": "bool"
        }
      ],
      "payable": false,
      "stateMutability": "view",
      "type": "function"
    },
    {
      "constant": false,
      "inputs": [
        {
          "name": "addr",
          "type": "address"
        },
        {
          "name": "amount",
          "type": "uint256"
        }
      ],
      "name": "withdrawalFunds",
      "outputs": [],
      "payable": false,
      "stateMutability": "nonpayable",
      "type": "function"
    }
  ],
  "bytecode": "0x608060405260016000803373ffffffffffffffffffffffffffffffffffffffff1673ffffffffffffffffffffffffffffffffffffffff16815260200190815260200160002060006101000a81548160ff0219169083151502179055506113fb8061006a6000396000f3006080604052600436106100af576000357c0100000000000000000000000000000000000000000000000000000000900463ffffffff1680631785f53c146100b4578063429b62e5146100f757806357cf9a381461015257806363cb7cec1461022057806366d122d21461022a578063704802751461028f578063d8c55e5e146102d2578063d9dff70914610337578063db420fe314610384578063e83faeba146103db578063fe9fbb801461041e575b600080fd5b3480156100c057600080fd5b506100f5600480360381019080803573ffffffffffffffffffffffffffffffffffffffff169060200190929190505050610479565b005b34801561010357600080fd5b50610138600480360381019080803573ffffffffffffffffffffffffffffffffffffffff16906020019092919050505061058d565b604051808215151515815260200191505060405180910390f35b34801561015e57600080fd5b50610193600480360381019080803573ffffffffffffffffffffffffffffffffffffffff1690602001909291905050506105ad565b604051808060200184815260200183151515158152602001828103825285818151815260200191508051906020019080838360005b838110156101e35780820151818401526020810190506101c8565b50505050905090810190601f1680156102105780820380516001836020036101000a031916815260200191505b5094505050505060405180910390f35b61022861067c565b005b34801561023657600080fd5b5061028d600480360381019080803573ffffffffffffffffffffffffffffffffffffffff169060200190929190803590602001908201803590602001919091929391929390803590602001909291905050506108a9565b005b34801561029b57600080fd5b506102d0600480360381019080803573ffffffffffffffffffffffffffffffffffffffff169060200190929190505050610b29565b005b3480156102de57600080fd5b50610335600480360381019080803573ffffffffffffffffffffffffffffffffffffffff16906020019092919080359060200190820180359060200191909192939192939080359060200190929190505050610c3d565b005b34801561034357600080fd5b50610382600480360381019080803573ffffffffffffffffffffffffffffffffffffffff16906020019092919080359060200190929190505050610f3a565b005b34801561039057600080fd5b506103996110a1565b604051808273ffffffffffffffffffffffffffffffffffffffff1673ffffffffffffffffffffffffffffffffffffffff16815260200191505060405180910390f35b3480156103e757600080fd5b5061041c600480360381019080803573ffffffffffffffffffffffffffffffffffffffff1690602001909291905050506110c7565b005b34801561042a57600080fd5b5061045f600480360381019080803573ffffffffffffffffffffffffffffffffffffffff16906020019092919050505061121b565b604051808215151515815260200191505060405180910390f35b6000803373ffffffffffffffffffffffffffffffffffffffff1673ffffffffffffffffffffffffffffffffffffffff16815260200190815260200160002060009054906101000a900460ff1615156104d057600080fd5b60008060008373ffffffffffffffffffffffffffffffffffffffff1673ffffffffffffffffffffffffffffffffffffffff16815260200190815260200160002060006101000a81548160ff0219169083151502179055507f753f40ca3312b2408759a67875b367955e7baa221daf08aa3d643d96202ac12b81604051808273ffffffffffffffffffffffffffffffffffffffff1673ffffffffffffffffffffffffffffffffffffffff16815260200191505060405180910390a150565b60006020528060005260406000206000915054906101000a900460ff1681565b6002602052806000526040600020600091509050806000018054600181600116156101000203166002900480601f0160208091040260200160405190810160405280929190818152602001828054600181600116156101000203166002900480156106595780601f1061062e57610100808354040283529160200191610659565b820191906000526020600020905b81548152906001019060200180831161063c57829003601f168201915b5050505050908060010154908060020160009054906101000a900460ff16905083565b6000600260003373ffffffffffffffffffffffffffffffffffffffff1673ffffffffffffffffffffffffffffffffffffffff168152602001908152602001600020600001805460018160011615610100020316600290049050141515156106e257600080fd5b6000600260003373ffffffffffffffffffffffffffffffffffffffff1673ffffffffffffffffffffffffffffffffffffffff1681526020019081526020016000206001015411151561073357600080fd5b60001515600260003373ffffffffffffffffffffffffffffffffffffffff1673ffffffffffffffffffffffffffffffffffffffff16815260200190815260200160002060020160009054906101000a900460ff16151514151561079557600080fd5b60643402600260003373ffffffffffffffffffffffffffffffffffffffff1673ffffffffffffffffffffffffffffffffffffffff16815260200190815260200160002060010154111515156107e957600080fd5b6001600260003373ffffffffffffffffffffffffffffffffffffffff1673ffffffffffffffffffffffffffffffffffffffff16815260200190815260200160002060020160006101000a81548160ff0219169083151502179055507f9bf77f8fb8aed6e5709a9ef58f231d79fdc0addc51b78550aed1ad5a5c0274d233604051808273ffffffffffffffffffffffffffffffffffffffff1673ffffffffffffffffffffffffffffffffffffffff16815260200191505060405180910390a1565b600160009054906101000a900473ffffffffffffffffffffffffffffffffffffffff1673ffffffffffffffffffffffffffffffffffffffff163373ffffffffffffffffffffffffffffffffffffffff1614151561090557600080fd5b6000600260008673ffffffffffffffffffffffffffffffffffffffff1673ffffffffffffffffffffffffffffffffffffffff1681526020019081526020016000206000018054600181600116156101000203166002900490501415151561096b57600080fd5b6000600260008673ffffffffffffffffffffffffffffffffffffffff1673ffffffffffffffffffffffffffffffffffffffff168152602001908152602001600020600101541115156109bc57600080fd5b60606040519081016040528084848080601f016020809104026020016040519081016040528093929190818152602001838380828437820191505050505050815260200182815260200160001515815250600260008673ffffffffffffffffffffffffffffffffffffffff1673ffffffffffffffffffffffffffffffffffffffff1681526020019081526020016000206000820151816000019080519060200190610a6892919061132a565b506020820151816001015560408201518160020160006101000a81548160ff0219169083151502179055509050507fb61aa2e58af5125f4e22089f6551731d777c24be6dd6b13419cf2adf05c55d8784848484604051808573ffffffffffffffffffffffffffffffffffffffff1673ffffffffffffffffffffffffffffffffffffffff16815260200180602001838152602001828103825285858281815260200192508082843782019150509550505050505060405180910390a150505050565b6000803373ffffffffffffffffffffffffffffffffffffffff1673ffffffffffffffffffffffffffffffffffffffff16815260200190815260200160002060009054906101000a900460ff161515610b8057600080fd5b60016000808373ffffffffffffffffffffffffffffffffffffffff1673ffffffffffffffffffffffffffffffffffffffff16815260200190815260200160002060006101000a81548160ff0219169083151502179055507fad6de4452a631e641cb59902236607946ce9272b9b981f2f80e8d129cb9084ba81604051808273ffffffffffffffffffffffffffffffffffffffff1673ffffffffffffffffffffffffffffffffffffffff16815260200191505060405180910390a150565b600160009054906101000a900473ffffffffffffffffffffffffffffffffffffffff1673ffffffffffffffffffffffffffffffffffffffff163373ffffffffffffffffffffffffffffffffffffffff16141515610c9957600080fd5b6000600260008673ffffffffffffffffffffffffffffffffffffffff1673ffffffffffffffffffffffffffffffffffffffff168152602001908152602001600020600001805460018160011615610100020316600290049050148015610d03575060008383905014155b1515610d0e57600080fd5b6000600260008673ffffffffffffffffffffffffffffffffffffffff1673ffffffffffffffffffffffffffffffffffffffff16815260200190815260200160002060010154148015610d605750600081115b1515610d6b57600080fd5b60001515600260008673ffffffffffffffffffffffffffffffffffffffff1673ffffffffffffffffffffffffffffffffffffffff16815260200190815260200160002060020160009054906101000a900460ff161515141515610dcd57600080fd5b60606040519081016040528084848080601f016020809104026020016040519081016040528093929190818152602001838380828437820191505050505050815260200182815260200160001515815250600260008673ffffffffffffffffffffffffffffffffffffffff1673ffffffffffffffffffffffffffffffffffffffff1681526020019081526020016000206000820151816000019080519060200190610e7992919061132a565b506020820151816001015560408201518160020160006101000a81548160ff0219169083151502179055509050507f63bbdeee891335e2d5d1909d7144d9ee0c29132d69bce2b85fd55d947916b12684848484604051808573ffffffffffffffffffffffffffffffffffffffff1673ffffffffffffffffffffffffffffffffffffffff16815260200180602001838152602001828103825285858281815260200192508082843782019150509550505050505060405180910390a150505050565b60008060003373ffffffffffffffffffffffffffffffffffffffff1673ffffffffffffffffffffffffffffffffffffffff16815260200190815260200160002060009054906101000a900460ff161515610f9357600080fd5b60009050600082141515610fcf57813073ffffffffffffffffffffffffffffffffffffffff163110151515610fc757600080fd5b819050610fea565b3073ffffffffffffffffffffffffffffffffffffffff163190505b8273ffffffffffffffffffffffffffffffffffffffff166108fc829081150290604051600060405180830381858888f19350505050158015611030573d6000803e3d6000fd5b507fc93a5439de6e4507ebd443b47a0240821f25fedfd004222d1fc55e99a5a2a6608382604051808373ffffffffffffffffffffffffffffffffffffffff1673ffffffffffffffffffffffffffffffffffffffff1681526020018281526020019250505060405180910390a1505050565b600160009054906101000a900473ffffffffffffffffffffffffffffffffffffffff1681565b6000803373ffffffffffffffffffffffffffffffffffffffff1673ffffffffffffffffffffffffffffffffffffffff16815260200190815260200160002060009054906101000a900460ff16151561111e57600080fd5b7ff0d444b874290fabcedb49fc66c8f07fe4754f00e67d6377fa755171cbfa476a600160009054906101000a900473ffffffffffffffffffffffffffffffffffffffff1682604051808373ffffffffffffffffffffffffffffffffffffffff1673ffffffffffffffffffffffffffffffffffffffff1681526020018273ffffffffffffffffffffffffffffffffffffffff1673ffffffffffffffffffffffffffffffffffffffff1681526020019250505060405180910390a180600160006101000a81548173ffffffffffffffffffffffffffffffffffffffff021916908373ffffffffffffffffffffffffffffffffffffffff16021790555050565b600080600260008473ffffffffffffffffffffffffffffffffffffffff1673ffffffffffffffffffffffffffffffffffffffff1681526020019081526020016000206000018054600181600116156101000203166002900490501415151561128257600080fd5b6000600260008473ffffffffffffffffffffffffffffffffffffffff1673ffffffffffffffffffffffffffffffffffffffff168152602001908152602001600020600101541115156112d357600080fd5b600260008373ffffffffffffffffffffffffffffffffffffffff1673ffffffffffffffffffffffffffffffffffffffff16815260200190815260200160002060020160009054906101000a900460ff169050919050565b828054600181600116156101000203166002900490600052602060002090601f016020900481019282601f1061136b57805160ff1916838001178555611399565b82800160010185558215611399579182015b8281111561139857825182559160200191906001019061137d565b5b5090506113a691906113aa565b5090565b6113cc91905b808211156113c85760008160009055506001016113b0565b5090565b905600a165627a7a72305820a0b4dafff102acea59fa795f03ccd560d1a43785fd0a9bd37c3c37817c13fffb0029",
  "source": "pragma solidity ^0.4.24;\n\nimport \"./Admins.sol\";\n\ncontract KYC is Admins {\n\n    struct UserInfo {\n        string hashData;\n        uint valueNodes;\n        bool valid;\n    }\n\n    mapping(address => UserInfo) public informations;\n\n    event CreateUserInfo(address user, string hashData, uint valueNodes);\n    event ChangeUserInfo(address user, string hashData, uint valueNodes);\n    event UserAuthorization(address user);\n    event WithdrawalFunds(address addr, uint amount);\n\n    function createUserInfo(address user, string hashData, uint valueNodes) external onlyServer {\n        require(bytes(informations[user].hashData).length == 0 && bytes(hashData).length != 0);\n        require(informations[user].valueNodes == 0 && valueNodes > 0);\n        require(informations[user].valid == false);\n\n        informations[user] = UserInfo(hashData, valueNodes, false);\n\n        CreateUserInfo(user, hashData, valueNodes);\n    }\n\n    function changeUserInfo(address user, string hashData, uint valueNodes) external onlyServer {\n        require(bytes(informations[user].hashData).length != 0);\n        require(informations[user].valueNodes > 0 );\n\n        informations[user] = UserInfo(hashData, valueNodes, false);\n\n        ChangeUserInfo(user, hashData, valueNodes);\n    }\n\n    function userAuthorization() external payable {\n        require(bytes(informations[msg.sender].hashData).length != 0);\n        require(informations[msg.sender].valueNodes > 0 );\n        require(informations[msg.sender].valid == false);\n        require(informations[msg.sender].valueNodes <= (msg.value * 100));\n\n        informations[msg.sender].valid = true;\n\n        UserAuthorization(msg.sender);\n    }\n\n    function isAuthorized(address user) external constant returns(bool) {\n        require(bytes(informations[user].hashData).length != 0);\n        require(informations[user].valueNodes > 0 );\n\n        return informations[user].valid;\n    }\n\n    function withdrawalFunds(address addr, uint amount) external onlyAdmin {\n\n        uint summ = 0;\n        if(amount != 0) {\n            require(this.balance >= amount);\n            summ = amount;\n        } else {\n            summ = this.balance;\n        }\n        addr.transfer(summ);\n\n        WithdrawalFunds(addr, summ);\n    }\n}\n\n",
  "sourcePath": "/home/satchel/workspace/blockcerts/kyc-smart-contract/contracts/KYC.sol",
  "compiler": {
    "name": "solc",
    "version": "0.4.24+commit.e67f0147.Emscripten.clang"
  },
  "schemaVersion": "2.0.0",
  "updatedAt": "2019-02-21T14:08:46.750Z"
}